:100000000C9434000C9451000C9451000C94510049
:100010000C9451000C9451000C9451000C9451001C
:100020000C9451000C9451000C9451000C9451000C
:100030000C9451000C9451000C9451000C945100FC
:100040000C9451000C9451000C94BB020C94510080
:100050000C9451000C9494010C9451000C94510098
:100060000C9451000C94510011241FBECFEFD8E026
:10007000DEBFCDBF13E0A0E0B1E0E4EEFFE002C0E0
:1000800005900D92A438B107D9F723E0A4E8B3E0B6
:1000900001C01D92A539B207E1F70E94A3040C9498
:1000A000F0070C940000F999FECF92BD81BD8FB38B
:1000B00081608FBB80B50895F999FECF92BD81BD57
:1000C00060BD8FB384608FBB8FB382608FBB089598
:1000D0008AB180648AB983E884BD82E085BD88ECFA
:1000E00087BD089584B1866084B982EA80938000D8
:1000F00082E1809381008FE39CE990938700809355
:10010000860080E496E09093890080938800909325
:100110008B0080938A00089584B1886084B981E857
:100120008093B00086E08093B10088EC8093B300A8
:10013000089584E680937C00EAE7F0E08FE880830E
:1001400080818064808308958AB182608AB98AB18F
:100150008E7F8AB988E98093C10086E08093C200CF
:1001600087E690E09093C5008093C4000895F894CA
:1001700087B18F7087B988B18F7088B98AB1877C51
:100180008AB98BB188638BB98AB180688AB98BB11F
:100190008F778BB984B1806284B985B18F7D85B941
:1001A00084B1806184B985B18F7E85B90E94680071
:1001B0000E9472000E948C000E9499000E94A4007C
:1001C00078940895CF93C62F823061F118F481306E
:1001D00041F08EC0833009F446C0843009F468C011
:1001E00087C0693108F4C9E1C93708F0C8E76C2F46
:1001F00070E080E090E00E9474062EEA37E445E566
:1002000051E40E94000720E030E048E454E40E94FA
:1002100065050E9443067093890060938800C0932F
:10022000040166C0673008F4C7E0CF3408F0CEE4BC
:100230006C2F70E080E090E00E9474062EEA37E4B4
:1002400045E551E40E94000720E030E048E454E432
:100250000E9465050E94430670938B0060938A009C
:10026000C093050145C0603708F4C0E7C63808F000
:10027000C5E86C2F70E080E090E00E9474062EEAE2
:1002800037E445E551E40E94000720E030E048E40F
:1002900054E40E94650520E030E040E05EE30E9407
:1002A00000070E9443066093B300C093060120C07C
:1002B000653B08F0C4EB6C2F70E080E090E00E949A
:1002C00074062EEA37E445E551E40E94000720E079
:1002D00030E048E454E40E94650520E030E040E06E
:1002E0005EE30E9400070E94430667BDC0930301BE
:1002F000CF9108958BB18F778BB985B18F7C85B9FC
:1003000080918403813041F018F0823049F00895E3
:100310008BB180688BB9089585B1806185B90895E6
:1003200085B1806285B908951F920F920FB60F9222
:1003300011248F939F93EF93FF9380910701853052
:10034000D1F018F4843031F048C0863029F187307C
:10035000A1F143C08091790090E090939403809341
:100360009303ECE7F0E08081807F8560808385E007
:100370008093070132C08091790090E090939203BE
:1003800080939103ECE7F0E08081807F866080833A
:1003900086E08093070121C08091790090E09093DE
:1003A000900380938F03ECE7F0E08081807F87608B
:1003B000808387E08093070110C08091790090E0EE
:1003C00090938E0380938D03ECE7F0E08081807F33
:1003D0008460808384E080930701EAE7F0E0808115
:1003E00080648083FF91EF919F918F910F900FBE5A
:1003F0000F901F9018959091C00095FFFCCF8093AF
:10040000C60008950F931F93CF938C01C0E003C0E3
:100410000E94FB01CF5FF801EC0FF11D808181117B
:10042000F7CFCF911F910F910895CF93DF9300D015
:1004300000D01F92CDB7DEB74AE0BE016F5F7F4F9D
:100440000E94B307CE0101960E9402020F900F9006
:100450000F900F900F90DF91CF91089588E091E079
:100460000E94020281E291E00E9402028FE391E089
:100470000E9402028CE591E00E9402020895CF934F
:10048000DF9385E791E00E94020280E991E00E94FB
:10049000020282EB91E00E940202C4E0D1E0888176
:1004A00090E00E94150288EC91E00E9402028BEC21
:1004B00091E00E940202898190E00E94150288EC7E
:1004C00091E00E94020281EE91E00E9402028A8184
:1004D00090E00E94150288EC91E00E94020287EFF2
:1004E00091E00E9402028091030190E00E941502B7
:1004F00088EC91E00E9402028DE092E00E940202EC
:100500008CE591E00E940202DF91CF910895CF9394
:10051000DF9386E893E00E949507EC01853BD8F4D1
:1005200080918A036C2F0E94E2008AE292E00E948E
:10053000020280918A0390E00E94150282E392E019
:100540000E940202CE0199270E9415028DE392E0DB
:100550000E94020204C08FE392E00E940202109205
:1005600086031092850381E080938B030E943F02F3
:10057000DF91CF9108951F920F920FB60F92112421
:100580002F933F934F935F936F937F938F939F939B
:10059000AF93BF93CF93DF93EF93FF938091840347
:1005A000811106C18091C60080938C0380918C03D9
:1005B0000E94FB0180918B03813009F47BC020F005
:1005C000823009F4A9C0F4C080918C03813319F002
:1005D000883339F068C081E080938B030E943F022A
:1005E000E7C08DE592E00E94020280E792E00E945F
:1005F0000202C4E0D1E0888190E00E9415028BE7FE
:1006000092E00E94020280918F03909190030E94D9
:10061000150289EC91E00E94020284E892E00E94B7
:100620000202898190E00E9415028FE892E00E9408
:10063000020280918D0390918E030E94150289EC35
:1006400091E00E94020288E992E00E9402028A81FF
:1006500090E00E94150283EA92E00E9402028091DB
:100660009103909192030E94150289EC91E00E94FF
:1006700002028CEA92E00E9402028091030190E063
:100680000E94150287EB92E00E9402028091930380
:10069000909194030E94150289EC91E00E9402025D
:1006A0000E942E0285C080EC92E00E9402020E940D
:1006B0002E027EC080918C038133F0F080918C03F8
:1006C0008533D0F480918C03805380938A0382E039
:1006D00080938B0382ED92E00E94020280918A0354
:1006E00090E00E94150288E792E00E9402021092B8
:1006F0008603109285035CC080918C03803329F4BB
:1007000010928B030E942E0253C080EC92E00E9454
:1007100002020E943F024CC080918C038D3021F078
:1007200080918C038A3041F480918503882309F4F9
:100730003FC00E9487023CC080918C038033D8F078
:1007400080918C038A33B8F480918503833098F4C8
:10075000E091850381E08E0F80938503F0E0809126
:100760008C03EA57FC4F8083E0918503F0E0EA5761
:10077000FC4F10821DC080918C03883021F0809145
:100780008C038F3791F480918503882389F0E09161
:100790008503E150E0938503F0E0EA57FC4F1082B7
:1007A00086EF92E00E94020203C087E00E94FB01F4
:1007B000FF91EF91DF91CF91BF91AF919F918F9179
:1007C0007F916F915F914F913F912F910F900FBE4D
:1007D0000F901F901895CF93DF93C4E0D1E068810C
:1007E00080E090E00E945C00698181E090E00E94DE
:1007F0005C006A8182E090E00E945C00DF91CF9112
:100800000895CF93DF9380E090E00E945300C4E00E
:10081000D1E0888381E090E00E945300898382E0E8
:1008200090E00E9453008A83688181E00E94E20088
:10083000698182E00E94E2006A8183E00E94E20016
:10084000DF91CF9108951F93CF93DF93C9B1C07209
:1008500019B11071D9B1D87080910201882399F132
:10086000C11131C02FEF89EF90E0215080409040BE
:10087000E1F700C000004D9926C08091840390E00C
:10088000019663E070E00E946D07809384030E94EC
:100890007A0180918403811109C08AEF92E00E945D
:1008A000020210928B030E942E020DC080918403DD
:1008B000813029F48EE093E00E94020204C08BE2B2
:1008C00093E00E940202C09302018091840382306F
:1008D000B9F480910101882399F0111111C02FEF13
:1008E00089EF90E0215080409040E1F700C0000087
:1008F0004C9906C00E94EB0381E493E00E9402023F
:1009000010930101809184038230B9F48091000139
:10091000882399F0D11111C02FEF89EF90E0215079
:1009200080409040E1F700C000004B9906C00E9453
:10093000010481E693E00E940202D0930001DF915E
:10094000CF911F9108950E94B7000E9423048091C7
:100950008403813009F0AEC060918F0370919003E1
:1009600080E090E00E94720626EF38E24CE650E408
:100970000E94D10520E030E048EC51E40E9465057A
:100980000E944306062F60918D0370918E0380E0D4
:1009900090E00E9472062FE832EC45E650E40E9497
:1009A000D10520E030E040EE50E40E9465050E9451
:1009B0004306162F609191037091920380E090E0BE
:1009C0000E94720621E73DE342E451E40E94D10512
:1009D00020E030E040EE52E40E9465050E944306AC
:1009E000C62F609193037091940380E090E00E9481
:1009F00072062FE832EC45EB5FE30E94D1050E94BE
:100A00004306D62F20910401802F90E0821B91098C
:100A10009C0122F422273327281B390B2330310570
:100A20003CF0E4E0F1E00083608181E00E94E200BC
:100A300020910501812F90E0821B91099C0122F4F5
:100A400022273327281B390B233031053CF0E4E003
:100A5000F1E01183618182E00E94E20020910601B1
:100A60008C2F90E0821B91099C0122F422273327CE
:100A7000281B390B233031053CF0E4E0F1E0C28360
:100A8000628183E00E94E200209103018D2F90E0BB
:100A9000821B91099C0122F422273327281B390B42
:100AA000233031053CF0D09303016091030184E0D1
:100AB0000E94E2002FEF89EF90E0215080409040AB
:100AC000E1F700C0000041CF5058BB27AA270E9481
:100AD0007C050C94C6060E94B80638F00E94BF063A
:100AE00020F039F49F3F19F426F40C94B5060EF467
:100AF000E095E7FB0C94AF06E92F0E94D70658F368
:100B0000BA17620773078407950720F079F4A6F5F2
:100B10000C94F9060EF4E0950B2EBA2FA02D0B01C4
:100B2000B90190010C01CA01A0011124FF27591B32
:100B300099F0593F50F4503E68F11A16F040A22F38
:100B4000232F342F4427585FF3CF469537952795A9
:100B5000A795F0405395C9F77EF41F16BA0B620BA8
:100B6000730B840BBAF09150A1F0FF0FBB1F661FEF
:100B7000771F881FC2F70EC0BA0F621F731F841F32
:100B800048F4879577956795B795F7959E3F08F058
:100B9000B0CF9395880F08F09927EE0F979587951A
:100BA00008950E94E5050C94C6060E94BF0658F001
:100BB0000E94B80640F029F45F3F29F00C94AF067C
:100BC00051110C94FA060C94B5060E94D70668F3EE
:100BD0009923B1F3552391F3951B550BBB27AA27F6
:100BE00062177307840738F09F5F5F4F220F331F30
:100BF000441FAA1FA9F335D00E2E3AF0E0E832D0F8
:100C000091505040E695001CCAF72BD0FE2F29D0FA
:100C1000660F771F881FBB1F261737074807AB07CC
:100C2000B0E809F0BB0B802DBF01FF2793585F4F41
:100C30003AF09E3F510578F00C94AF060C94FA06FA
:100C40005F3FE4F3983ED4F3869577956795B79523
:100C5000F7959F5FC9F7880F911D9695879597F92E
:100C60000895E1E0660F771F881FBB1F62177307A7
:100C70008407BA0720F0621B730B840BBA0BEE1FBC
:100C800088F7E09508950E94DF0688F09F5798F056
:100C9000B92F9927B751B0F0E1F0660F771F881F81
:100CA000991F1AF0BA95C9F714C0B13091F00E949B
:100CB000F906B1E008950C94F906672F782F88277C
:100CC000B85F39F0B93FCCF3869577956795B395C2
:100CD000D9F73EF490958095709561957F4F8F4F31
:100CE0009F4F0895E89409C097FB3EF49095809536
:100CF000709561957F4F8F4F9F4F9923A9F0F92FE2
:100D000096E9BB279395F695879577956795B7955F
:100D1000F111F8CFFAF4BB0F11F460FF1BC06F5F45
:100D20007F4F8F4F9F4F16C0882311F096E911C057
:100D3000772321F09EE8872F762F05C0662371F078
:100D400096E8862F70E060E02AF09A95660F771F8C
:100D5000881FDAF7880F9695879597F9089597F980
:100D60009F6780E870E060E008959FEF80EC089551
:100D700000240A941616170618060906089500247A
:100D80000A9412161306140605060895092E0394F4
:100D9000000C11F4882352F0BB0F40F4BF2B11F468
:100DA00060FF04C06F5F7F4F8F4F9F4F089557FDC7
:100DB0009058440F551F59F05F3F71F04795880FC9
:100DC00097FB991F61F09F3F79F087950895121660
:100DD00013061406551FF2CF4695F1DF08C016160C
:100DE00017061806991FF1CF8695710561050894BD
:100DF0000895E894BB2766277727CB0197F90895D4
:100E00000E9413070C94C6060E94B80638F00E9490
:100E1000BF0620F0952311F00C94AF060C94B50694
:100E200011240C94FA060E94D70670F3959FC1F323
:100E3000950F50E0551F629FF001729FBB27F00D88
:100E4000B11D639FAA27F00DB11DAA1F649F6627DD
:100E5000B00DA11D661F829F2227B00DA11D621F2C
:100E6000739FB00DA11D621F839FA00D611D221FE6
:100E7000749F3327A00D611D231F849F600D211DCA
:100E8000822F762F6A2F11249F5750409AF0F1F04D
:100E900088234AF0EE0FFF1FBB1F661F771F881FB6
:100EA00091505040A9F79E3F510580F00C94AF0639
:100EB0000C94FA065F3FE4F3983ED4F38695779559
:100EC0006795B795F795E7959F5FC1F7FE2B880F5C
:100ED000911D9695879597F9089597FB072E16F41F
:100EE000009407D077FD09D00E94810707FC05D048
:100EF0003EF4909581959F4F0895709561957F4F31
:100F00000895AA1BBB1B51E107C0AA1FBB1FA61750
:100F1000B70710F0A61BB70B881F991F5A95A9F7A2
:100F200080959095BC01CD010895FC0188279927F3
:100F3000E89421912032E9F3293010F02E30C8F3E3
:100F40002B3241F02D3239F4689404C00E94BE0760
:100F5000820F911D219120532A30C0F31EF49095E9
:100F600081959F4F0895BB274A3031F4992322F48D
:100F7000BDE2909581959F4F0C94C7077AE0979FAB
:100F8000902D879F802D910D11240895BB27FB0183
:100F90005527AA27880F991FAA1FA41710F0A41B72
:100FA00083955051B9F7A05DAA3308F0A95DA193CC
:100FB000009779F7B111B1931192CB010C94E0072E
:100FC000DC01FC01672F71917723E1F7329704C0B0
:100FD0007C916D9370836291AE17BF07C8F308953B
:040FE000F894FFCFB3
:100FE4000101015A5A5A5A040A0A3D3D3D204D4511
:100FF4004E55205052494E434950414C203D3D3DB1
:10100400000A312E20436F6E74726F6C617220730C
:101014006572766F7320706F722055415254000AC6
:10102400382E204D6F73747261722076616C6F720A
:1010340065732061637475616C6573000A53656C34
:10104400656363696F6E6520756E61206F70636997
:101054006F6E3A20000A0A3D3D3D20434F4E5452E4
:101064004F4C20504F522055415254203D3D3D009D
:101074000A53656C656363696F6E6520656C2073E4
:101084006572766F206120636F6E74726F6C61722B
:101094003A000A312E20536572766F2031202841A0
:1010A400637475616C3A2000B029000A322E205313
:1010B4006572766F2032202841637475616C3A2022
:1010C400000A332E20536572766F20332028416343
:1010D4007475616C3A20000A342E20536572766F61
:1010E4002034202841637475616C3A20000A302E44
:1010F40020566F6C76657220616C206D656E75206C
:101104007072696E636970616C000A536572766F00
:101114002000206D6F7669646F20612000B0000AA2
:101124004572726F723A20416E67756C6F20646508
:1011340062652073657220302D313830000A5661A3
:101144006C6F7265732061637475616C65733A00CA
:101154000A536572766F20313A2000B0202850433C
:10116400363A20000A536572766F20323A2000B076
:1011740020285043373A20000A536572766F203393
:101184003A2000B020285043353A20000A536572B3
:10119400766F20343A2000B020285043343A20009F
:1011A4000A4F7063696F6E206E6F2076616C69649C
:1011B40061000A496E677265736520616E67756CBC
:1011C4006F2028302D31383029207061726120530E
:1011D4006572766F2000082008000A4D6F646F2046
:1011E4005541525420616374697661646F000A4DFD
:1011F4006F646F20506F74656E63696F6D65747290
:101204006F20616374697661646F000A4D6F646F67
:1012140020454550524F4D20616374697661646F77
:10122400000A506F736963696F6E65732067756137
:1012340072646164617320656E20454550524F4D60
:10124400000A506F736963696F6E6573206361721E
:101254006761646173206465736465204545505219
:041264004F4D0000EA
:00000001FF
